:100000000C942A000C943F000C943F000C943F0089
:100010000C943F000C943F000C943F000C943F0064
:100020000C943F000C943F000C943F000C943F0054
:100030000C943F000C943F000C943F000C943F0044
:100040000C943F000C943F000C943F000C943F0034
:100050000C943F0011241FBECFE5D4E0DEBFCDBF1E
:1000600010E0A0E6B0E0EEE3F1E002C005900D92F2
:10007000A836B107D9F70E945F000C949D000C943C
:100080000000FC0120E030E041E050E0CA01022E17
:1000900002C0880F991F0A94E2F782BB80818BBB54
:1000A0008181329685BB87EE93E00197F1F700C01E
:1000B00000002F5F3F4F2430310541F70895CF9363
:1000C000DF93CDB7DEB728970FB6F894DEBF0FBE2B
:1000D000CDBF8FEF8ABB84BB81BB84B7806884BFF0
:1000E00084B7806884BF88E0E0E6F0E0DE01119626
:1000F00001900D928A95E1F7F8941FE3CE010196E5
:100100000E9441001150D1F789819A81880F991F6F
:100110009A8389838B819C81880F991F9C838B8311
:100120008D819E81880F991F9E838D838F819885F5
:0E013000880F991F98878F83E0CFF894FFCF38
:08013E000100010001000100B5
:00000001FF
