S00F00004C4544437562652E73726563C1
S11300000C942A000C9447000C9447000C9447006D
S11300100C9447000C9447000C9447000C94470040
S11300200C9447000C9447000C9447000C94470030
S11300300C9447000C9447000C9447000C94470020
S11300400C9447000C9447000C9447000C94470010
S11300500C94470011241FBECFE5D4E0DEBFCDBF12
S113006010E0A0E6B0E0ECEDF3E002C005900D92E4
S1130070A436B107D9F720E0A4E6B0E001C01D9290
S1130080A836B207E1F70E94B0000C94EC010C947E
S11300900000FC010FB6F894609164007091650053
S11300A080916600909167000FBE309721F06083C5
S11300B07183828393830895982F92959F7021E092
S11300C030E002C0220F331F9A95E2F722BB8F70F3
S11300D0883070F045B3885021E030E0B90102C0A7
S11300E0660F771F8A95E2F7CB01842B85BB0895B1
S11300F04BB321E030E0B90102C0660F771F8A9547
S1130100E2F7CB01842B8BBB0895982F92959F70B7
S113011021E030E002C0220F331F9A95E2F722BBA0
S11301208F70883078F045B3885021E030E0B90111
S113013002C0660F771F8A95E2F7CB01809584236E
S113014085BB08954BB321E030E0B90102C0660FCE
S1130150771F8A95E2F7CB01809584238BBB0895A2
S1130160CF93DF9300D000D0CDB7DEB78FEF8ABB3B
S113017084BB8FE081BB84B7806884BFCE010196C5
S11301800E944900CB010E947E010F2EFFE3EF2E57
S1130190F12CF02D0E947901B7010E940501082F6E
S11301A00E945C002FE58AEE90E021508040904050
S11301B0E1F700C000000E947901B7010E94050127
S11301C0182F0E945C002FE58AEE90E021508040B9
S11301D09040E1F700C00000802F0E9485002FE5C9
S11301E08AEE90E0215080409040E1F700C000008A
S11301F0812F0E9485002FE58AEE90E021508040F7
S11302009040E1F700C00000C5CF97FB072E16F41D
S1130210009407D077FD09D00E94190107FC05D08E
S11302203EF4909581959F4F0895709561957F4F09
S11302300895AA1BBB1B51E107C0AA1FBB1FA61729
S1130240B70710F0A61BB70B881F991F5A95A9F77B
S113025080959095BC01CD0108958F929F92AF92A5
S1130260BF92CF92DF92EF92FF92CF93DF93EC0194
S1130270688179818A819B81611571058105910568
S113028021F464E279ED8BE597E02DE133EF41E071
S113029050E00E94890149015A019B01AC01A7EA7F
S11302A0B1E40E94A8016B017C01ACEEB4EFA5019E
S11302B094010E94B601DC01CB018C0D9D1DAE1D85
S11302C0BF1DB7FF03C00197A109B0488883998374
S11302D0AA83BB839F77DF91CF91FF90EF90DF904C
S11302E0CF90BF90AF909F908F9008950E942D0162
S11302F0089580E690E00E942D010895A0E0B0E00A
S11303008093600090936100A0936200B0936300B7
S11303100895052E97FB1EF400940E94A00157FD3A
S113032007D00E94BB0107FC03D04EF40C94A0013B
S113033050954095309521953F4F4F4F5F4F08950D
S113034090958095709561957F4F8F4F9F4F08953D
S11303500E94DD01A59F900DB49F900DA49F800D78
S1130360911D11240895B7FF0C94A8010E94A801BF
S1130370821B930B0895A1E21A2EAA1BBB1BFD013D
S11303800DC0AA1FBB1FEE1FFF1FA217B307E40770
S1130390F50720F0A21BB30BE40BF50B661F771FC8
S11303A0881F991F1A9469F76095709580959095A8
S11303B09B01AC01BD01CF010895A29FB001B39F81
S11303C0C001A39F700D811D1124911DB29F700D5A
S10F03D0811D1124911D0895F894FFCFA5
S10703DC0100000018
S9030000FC
